:020000040800F2
:10000000F0FF0010357E05087D3B030821740108D0
:10001000D57E0508D57E0508D57E050800000000C0
:10002000000000000000000000000000893B030801
:10003000853B030800000000813B0308D54C010804
:10004000D57E0508D57E0508D57E0508D57E050830
:10005000D57E0508D57E0508AD820108D983010843
:100060009D83010861830108258301087D10010833
:100070006D1001085D1001084D10010839100108CC
:100080002510010811100108D57E0508D57E050848
:10009000D57E0508D57E0508D57E0508E9820108CC
:1000A0008D2F010829350108BD2E0108F9350108F9
:1000B00069340108A9330108DD3201086D16010811
:1000C000751601086116010869160108D57E050834
:1000D000D57E0508854F0108E94E01084D4E0108FF
:1000E00071820108D57E05081D840308ED2D0108E5
:1000F0005D3001081D2D01083D310108FD0F01088B
:10010000D57E0508D57E05080D320108D57E050887
:10011000B14D0108154D0108ED810408D98104088D
:10012000E90F0108D50F0108C10F0108AD0F010843
:10013000990F0108D57E0508D57E0508D57E0508EE
:10014000D57E0508D57E0508D57E0508F972030819
:10015000850F0108710F01085D0F0108D57E0508A4
:10016000551601085D160108D57E0508D57E0508DF
:10017000D57E0508D57E0508D57E0508D57E0508FF
:08018000D57E0508D57E0508B7
:08018800DC7905000100000014
:10019000100201000C2100200821002000000000B6
:1001A000440700081F021000202100201021002019
:1001B00000000000E18300081A023C0058410020C2
:1001C0001C440020000000002593000827000400C4
:1001D0005441002058440020000000004607000859
:1001E00003123300244C0020604C0020000000006B
:1001F0004A07000825102C01004A0020944C0020DA
:10020000000000000000000010100200E44900207F
:10021000C04D0020000000007E0700081900050006
:10022000A8480020C44D00200000000080070008FE
:100230001A000E0034480020CC4D002000000000C1
:1002400086070008F821060008470020DC4D002042
:100250000000000094070008150070008045002091
:10026000E44D002000000000000000002A006000B3
:100270000C490020544E002000000000719301083A
:100280000120080070620020E467002000000000E8
:100290009A0700080A70280050610020EC670020CF
:1002A00000000000918503080E906201EC5F0020C1
:1002B0001468002000000000999301080101040067
:1002C000485F002078690020000000000000000066
:1002D00000010400405F00207C6900200000000055
:1002E000A2070008020103003C5F00208069002093
:1002F00000000000F16204080C109C00C4610020A2
:100300008469002000000000C562040801020500A5
:10031000545F0020206A002000000000595D0208A0
:1003200000020500B0650020286A002000000000DF
:10033000000000001B0210007C650020306A0020D5
:1003400000000000CD8500081E00060008630020A4
:10035000406A002000000000A60700081B100C00E7
:1003600038500020486A002000000000C16A0208DE
:100370002102F000BC4E0020546A00200000000062
:100380009D6902080510060094770020F47700208C
:1003900000000000AC07000837102400A8770020F8
:1003A000FC77002000000000B20700080E020200E7
:1003B000787700202078002000000000D607000891
:1003C000161006005C6D002024780020000000005C
:1003D000D80700082F102200D07700202C780020AA
:1003E00000000000DE07000823100E002C6F002024
:1003F000507800200000000005860308F5518C00AD
:10040000906C00206078002000000000D96802088D
:1004100026100C00F8780020EC7800200000000086
:10042000D9CD020814000300C873002030790020E1
:1004300000000000000800080B301800386C002095
:100440003479002000000000040800081F30240058
:10045000506C00204C790020000000001C080008AF
:1004600005020400F86E00207079002000000000F2
:100470004008000803010A00E48B0020808C002063
:10048000000000004408000813020400A0810020BE
:100490008C8C0020000000004E0800082C0010008A
:1004A0009CA500208CA500200000000071A003087E
:1004B0002B002400D0A50020ACA5002000000000E7
:1004C00041A003082920780094A40020F4A500206E
:1004D000000000000000000020320A0078A6002082
:1004E0006CA6002000000000718503081C021000AB
:1004F000A0A0002084A6002000000000A185000824
:100500002810100068A3002094A60020000000001E
:10051000ED850308070202000CB0002054B0002053
:100520000000000054080008F6210C00E4AF002091
:1005300058B00020000000005808000802000C001D
:10054000D8AF002064B000200000000000000000D0
:1005500006020C00CCAF002070B0002000000000AC
:1005600059940008F701060024AF00207CB0002059
:1005700000000000640800080A020A00D0AE002053
:1005800084B0002000000000896904080300010015
:1005900018AF002090B00020000000000000000014
:1005A0000D0044004CDC002008DD002000000000AD
:1005B000CD14040809020100F4DA00204CDD00200B
:1005C000000000006C0800080400800074DA0020BD
:1005D00050DD0020000000000000000013000400B7
:1005E00054DA0020D0DD0020000000007008000870
:1005F000FD01240030DA0020D4DD002000000000DE
:100600009118010818202C0000DA0020F8DD0020E5
:1006100000000000ED93000806101A0000C800203A
:1006200024DE002000000000F5930108FB0101001A
:10063000FCC7002040DE002000000000C19300083D
:10064000FC010900C8C6002044DE002000000000B4
:10065000D193000816023F0088C6002050DE00201B
:1006600000000000A984000834001000B8C5002074
:1006700090DE002000000000C9930108110208006C
:1006800090C50020A0DE00200000000074080008D3
:100690001212040088C50020A8DE0020000000001F
:1006A0007C0800081220100078C50020ACDE002075
:1006B0000000000080080008FF110600D4C10020DF
:1006C000BCDE0020000000003584000808120F0086
:1006D000E0C10020C4DE00200000000051840008BA
:1006E000F9010400D0C10020D4DE00200000000089
:1006F00009190108FA010200B8BB0020D8DE002069
:1007000000000000C186000802020300B8B000200B
:10071000DCDE002000000000000000000C020400ED
:10072000A4B00020E0DE0020000000008985000861
:10073000FE01140084BB0020E4DE00200000000065
:04074000B183000879
:100744000000200300000000000000000000000082
:100754000000000000000000000000000000000095
:100764000000000000000000000000000000000085
:100774000000000000000000010000050000280146
:1007840000007E05EA05B4053200E803D007000046
:100794000401F4011400E8036400040A0001B30036
:1007A4000000000001000000200002010000200001
:1007B4003200C800D0079600140032002800B004AC
:1007C40040060005500014000F00080064000100FA
:1007D40001000000C409000019000000000000002E
:1007E4000000000000000000000000000000000005
:1007F40000000000000000000000000003000000F2
:10080400AE014A015E012C016401010000000100F7
:100814000A019A01001E0A00000000000001000005
:1008240000050000010203000000000000000000B9
:10083400000000000000000000800700000000002D
:10084400040101006C16000000000000012C0000EF
:10085400013C000000000000010000000202000052
:100864003D01000000000000130000004804443073
:100874000000000001010101FFFFFFFF0000000173
:0C0884000000054D4B4634000008000049
:100890001A0300000000000000000000000000003B
:1008A0000000000000000000000000000403090434
:1008B00012010002000000408304205700020102E0
:1008C00003010000A99B0008919B0008819B000880
:1008D000158600082D9B0008D59A0008058600089B
:1008E000A002002061D200081D86000819860008B9
:1008F00011860008699500080D8600080986000821
:1009000008990508316B03087D2F0308196A03084D
:100910000000000000000000695F0308915F030809
:10092000000000000000000000000000DD2D0308B2
:10093000B5860008A9860008059C0008219C0008CF
:1009400061860008E99B0008CD9B00080068214CE7
:100950001F0000001C0000001F0000001E0000001F
:100960001F0000001E0000001F0000001F0000000C
:100970001E0000001F0000001E0000001F000000FD
:10098000FF01FF0000000401000000000000000261
:100990001000000007000000000000000000000040
:1009A0000102030406070809008002021F0000007C
:1009B00053544D202020202050726F6475742020E5
:1009C0002020202020202020302E3031685E0C0096
:1009D00001000000A00F0000B80B00000102FFFFA3
:1009E00001000000FFFFFFFF0000803F000000004B
:1009F00000000000000000000000803F0000000038
:100A000000000000000000000000000000000000E6
:100A100000000000000000000000000000000000D6
:100A20000000803F00000000000000000000000007
:100A3000010000000000803FFFFFFFFF0000803F3B
:100A4000000000000000000000000000FF000000A7
:100A500000000100E001FF015160020800000000F9
:100A600074AF050820700020702D7200FFFFFFFF9B
:100A7000080101FFFF2D202D2D202D2D2D2D202DA6
:100A80002D2D00000000000000000000000000000C
:100A900000000000000000000000000084C5050800
:100AA000000000000000000010C605080100000062
:100AB000FA0000000100000001000000A661002013
:100AC00000C80100A561002000500100A4610020C1
:100AD000005A0100A26100200200000004B50508D0
:100AE0005C22060864220608F2DC00200100C4092A
:100AF00000000000F0DC00200100C409000000003C
:100B0000EEDC00200100C40900000000ECDC002045
:100B10000100C40900000000E8DC00200100C40955
:100B200000000000EADC00200100C4090000000011
:100B3000E6DC00200100C40900000000E4DC002025
:100B40000100C40900000000645F00200100C8002B
:100B500001000000625F00203200307532000000AA
:100B6000615F0020055A05005E5F002000FF010064
:100B7000605F002001000000D80300205C5F0020BF
:100B8000020000008CCA05085D5F002000FF010024
:100B90005F5F002001000000D80300205B5F0020A1
:100BA000020000008CCA05087C620020EE02CA0820
:100BB000010000007A62002000C80100640000000B
:100BC0007962002000C80100640000007862002003
:100BD0000200000010B505084E5F002080C1803E75
:100BE000050000004C5F002080C1803E0500000031
:100BF000465F002080C1803E05000000445F002069
:100C000080C1803E050000003F5F002000FF010022
:100C1000385F00206400F40101000000375F00200D
:100C2000040000001CB50508365F0020020000002B
:100C300030B50508DB5F00200D0000003CB505085D
:100C4000D85F002000640100D65F0020320010272A
:100C50000A000000D55F00200D0000003CB505082B
:100C6000D45F00200D0000003CB50508D35F0020D4
:100C70000200000074B5050800000000000000003C
:100C800080B50508288C00209CFF2C010000000086
:100C9000C2660020E0150C1700000000E56500208A
:100CA00002000000B8B50508886200200100FF7F3F
:100CB000010000008762002002000000C4B50508A2
:100CC000DD5F002003000000D4B50508DC5F0020D4
:100CD00003000000D4B50508846100200000E8038B
:100CE00001000000826100200000E8030100000014
:100CF000806100200000E803010000007E61002008
:100D00000000E803010000007C6100200000E8030F
:100D1000010000007A6100200000E80301000000EB
:100D200079610020001401007861002003000000B8
:100D3000E4B50508906100200000F4010100000006
:100D40008E6100200000F401010000008C61002091
:100D50000000F401010000008A6100200000F4019D
:100D600001000000886100200000A00F01000000C9
:100D7000866100200000A00F01000000B961002082
:100D800019640100B861002002000000F4B50508F4
:100D9000B6610020E803D0070A000000B46100201B
:100DA000006401000A000000A96100200064010045
:100DB000A861002000640100B0610020006401000F
:100DC0000A000000AF610020006401000A0000007A
:100DD000AE610020006401000A000000B361002041
:100DE000006401000A000000B261002000640100FC
:100DF0000A000000B1610020006401000A00000048
:100E0000AD61002001FF01000A000000AC6100207C
:100E100001FF01000A000000AB61002001FF01009A
:100E20000A000000E65F00200000F401010000005D
:100E3000E45F00200000A00F01000000E25F00203E
:100E40000000A00F01000000E05F00200000A00FE4
:100E500001000000DE5F00200000A00F0100000084
:100E6000A161002000640100A06100200064010075
:100E70009F610020006401009E610020FF080100C6
:100E80009D61002001640100556602081966020890
:100E900000B605089C610020006401009A610020F2
:100EA0001400E8030100000098610020E803307599
:100EB0000A0000009661002000C801009561002032
:100EC00000C801009461002000C801009361002067
:100ED000006401000A0000006E6200200000D007DC
:100EE000010000006962002000C801006862002063
:100EF00000C801006762002000C801006C62002089
:100F00000000D007010000006662002000C8010058
:100F10006562002000C801006462002000C8010072
:100F20006A6200200000D007010000006362002018
:100F300000C801006262002000C801006162002058
:100F400000C80100000000009163020870B60508A7
:100F5000D15F0020330000000CB70508D05F0020EF
:100F600000C80100CE5F0020E803D00701000000A8
:100F70004D4154454B463430350000005A5F002047
:100F800000030100595F002000030100F96202081C
:100F9000D1620208DCB705088D62020841620208CE
:100FA00030B805082163020869900208B0B8050846
:100FB000505F002001030100B16702088567020845
:100FC000A4BB0508C56102087961020808BC0508D0
:100FD000A763020865B30208A4BC050885A402083B
:100FE000000000004CBD0508DD94020811680208ED
:100FF000E8BD0508056402080000000068BE050899
:10100000C964020875640208CCBE05085965020867
:101010001D65020868BF050891660208D9660208C6
:10102000E8BF0508A761002001060100416402082D
:1010300019640208E4C0050895650208CD9002080D
:1010400054C10508096702085591020834C2050811
:101050009261002001030100656302083963020800
:1010600008C30508DD670208000000006CC305081E
:101070001162020839900208D0C305080000000080
:10108000000000005CC405085D670208CD910208FD
:10109000DCC40508325F002088136F1701000000D0
:1010A000345F002088136F1700000000768A00204C
:1010B0000000000000000000748A00200000000012
:1010C00000000000728A0020000000000000000004
:1010D000708A002000000000000000006E8A0020DE
:1010E00000000000000000006C8A002000000000EA
:1010F00000000000C40C0020000000000000000000
:10110000095F00200200000064C60508305F00206F
:1011100088136F1701000000708C002088136F1770
:1011200000000000096102080000000070C6050808
:10113000E665002001000000C4C60508728C00208E
:1011400001000000D0C60508688C002002000000E5
:10115000D8C605080000000000000000E4C605082D
:10116000F16002080000000080C7050800000000D0
:1011700000000000D4C705080000000000000000C7
:1011800044C805086C8C0020E0150C170000000016
:1011900001010000FF1FFF1FFFFFFFFF0479002078
:1011A000000000002879002000000000010000007D
:1011B0000403090412010002EF02014083045632C5
:1011C00000020102030100001201000202020040BD
:1011D00083044057000201020301000009022000BD
:1011E000010104C032090400000208065005070589
:1011F000810240000007050102400000090264006E
:10120000030100C0320904000001030000000921AD
:10121000110100012226000705830308000A080BBC
:10122000010202020100090401000102020100059D
:1012300024001001052401000204240202052406F2
:101240000102070582030800FF09040200020A00E8
:101250000000070501024000000705810240000070
:1012600009024300020100C0320904000001020229
:1012700001000524001001052401000104240202DC
:101280000524060001070582030800FF0904010088
:10129000020A000000070501024000000705810264
:1012A00040000000FF000000D4CB05080000000053
:1012B000000000000000000000000000000000002E
:1012C000000000000000000000000000000000001E
:1012D00000FFFF0000000000A8CB05080000000090
:1012E00000000000000000000000000000000000FE
:1012F00000000000000000000000000000000000EE
:10130000AA5505010000000005010905A101A10081
:101310000501093009310932093309350934094019
:1013200009381581257F750895088102C0C0000025
:1013300009022200010100E032090400000103015A
:10134000020009211101000122260007058303087C
:10135000000A00000000000001020304010203046F
:1013600006070809BD6103088568030801640308CE
:10137000692E03088D300308792E0308952E030883
:10138000412E0308312E0308000000000000000079
:101390002D202D2D202D2D2D2D202D2D2D2D0000FE
:1013A000000000000000000000000000000000AA93
:1013B000550B010000AA5507010000AA55090200BB
:1013C0000000AA5503009F0001000000C0120000A9
:1013D000D60101000001010100010100F5330308FD
:1013E000C12F0308DD630308000000002D2E030851
:1013F000916B0308A933030815610308000000007E
:1014000000000000E92D0308792C03086D2C030867
:10141000315803084D58030815580308F9570308B5
:10142000DD570308AD3303089D2F03081D63030830
:1014300000000000012E0308196103087D33030832
:10144000756003080000000000000000F52D03088F
:101450000000000044B00020080000000000000070
:1014600034B00020080000006441060870410608FE
:101470007C4106088841060894410608A0410608F8
:10148000E8300608CC590608B05806080C41060892
:10149000B014060870120608584106085C41060898
:1014A00060410608484106084C41060850410608BC
:1014B00020570608544106081900C800F40120030B
:1014C000484106084C410608AC4106085041060850
:1014D000B0410608B4410608AF69040800000000E6
:1014E000000000000000000008000000692C030854
:1014F000652C0308612C0308552C0308512C0308A4
:101500005D2C0308592C030809390308D537030853
:101510003939030845520308696E0308C1520308AC
:10152000912D03087D2D0308752D0308010000008F
:101530000060024010600240000000000000000057
:10154000000B000000000000000000000000000090
:10155000006002402860024001000000000000001E
:10156000060C000000000000000000000000000069
:1015700000600240406002400200000000000000E5
:10158000100D00000000000000000000000000003E
:1015900000600240586002400300000000000000AC
:1015A000160E000000000000000000000000000017
:1015B0000060024070600240040000000000000073
:1015C000200F0000000000000000000000000000EC
:1015D000006002408860024005000000000000003A
:1015E00026100000000000000000000000000000C5
:1015F00000600240A0600240060000000000000001
:101600003011000000000000000000000000000099
:1016100000600240B86002400700000000000000C7
:10162000362F000000000000000000000000000055
:10163000006402401064024000000000000000004E
:101640000038000000000000000000000000000062
:101650000064024028640240010000000000000015
:10166000063900000000000000000000000000003B
:1016700000640240406402400200000000000000DC
:10168000103A000000000000000000000000000010
:1016900000640240586402400300000000000000A3
:1016A000163B0000000000000000000000000000E9
:1016B000006402407064024004000000000000006A
:1016C000203C0000000000000000000000000000BE
:1016D0000064024088640240050000000000000031
:1016E0002644000000000000000000000000000090
:1016F00000640240A06402400600000000000000F8
:101700003045000000000000000000000000000064
:1017100000640240B86402400700000000000000BE
:10172000364600000000000000000000000000003D
:101730000C430608DC3606080000000005630408B8
:10174000A08601000400000000000000000000006E
:101750000000000000000000000000000000000089
:101760000000000000000000000000000000000079
:101770000C4306081443060800000000C11C0108C1
:10178000E80300000400000000000000000000006A
:101790000000000000000000000000000000000049
:1017A0000000000000000000000000000000000039
:1017B000A42806081C43060800000000558E0408F3
:1017C0007D00000006000000000000000000000096
:1017D0000000000000000000000000000000000009
:1017E00000000000000000000000000000000000F9
:1017F0002443060800000000000000004D420108DC
:10180000E8030000030000000000000000000000EA
:1018100000000000000000000000000000000000C8
:1018200000000000000000000000000000000000B8
:10183000284306080000000000000000B9F8010875
:10184000102700000300000000000000000000005E
:101850000000000000000000000000000000000088
:101860000000000000000000000000000000000078
:10187000E07D0608000000006D9C030885740108E7
:101880005F7600000500000000000000000000007E
:101890000000000000000000000000000000000048
:1018A0000000000000000000000000000000000038
:1018B0006C8006080000000000000000C98B0108D1
:1018C00010270000010000000000000000000000E0
:1018D0000000000000000000000000000000000008
:1018E00000000000000000000000000000000000F8
:1018F0003443060800000000000000003117010812
:10190000E8030000050000000000000000000000E7
:1019100000000000000000000000000000000000C7
:1019200000000000000000000000000000000000B7
:10193000404306080000000000000000ED86040897
:10194000204E000003000000000000000000000026
:101950000000000000000000000000000000000087
:101960000000000000000000000000000000000077
:10197000504306080000000000000000D98404085D
:10198000204E0000030000000000000000000000E6
:101990000000000000000000000000000000000047
:1019A0000000000000000000000000000000000037
:1019B0006043060800000000000000004523010805
:1019C000400D0300030000000000000000000000C4
:1019D0000000000000000000000000000000000007
:1019E00000000000000000000000000000000000F7
:1019F000E43F06080000000000000000252F040856
:101A0000102700000100000000000000000000009E
:101A100000000000000000000000000000000000C6
:101A200000000000000000000000000000000000B6
:101A3000683106080000000000000000317602084E
:101A4000102700000300000000000000000000005C
:101A50000000000000000000000000000000000086
:101A60000000000000000000000000000000000076
:101A7000704306080000000000000000B9F30308EE
:101A8000A08601000100000000000000000000002E
:101A90000000000000000000000000000000000046
:101AA0000000000000000000000000000000000036
:101AB000784306080000000000000000ED1B01084C
:101AC00050C3000001000000000000000000000002
:101AD0000000000000000000000000000000000006
:101AE00000000000000000000000000000000000F6
:101AF000A4240608000000000000000019190108D5
:101B0000A8610000010000000000000000000000CB
:101B100000000000000000000000000000000000C5
:101B200000000000000000000000000000000000B5
:101B300080430608000000000000000031B40208E5
:101B4000A08601000100000000000000000000006D
:101B50000000000000000000000000000000000085
:101B60000000000000000000000000000000000075
:101B7000044006080000000000000000D5500108E5
:101B8000A00F0000010000000000000000000000A5
:101B90000000000000000000000000000000000045
:101BA0000000000000000000000000000000000035
:101BB0008C4306080000000000000000ADAE0208E3
:101BC00010270000010000000000000000000000DD
:101BD0000000000000000000000000000000000005
:101BE00000000000000000000000000000000000F5
:101BF000E82F06080000000000000000991E0308FE
:101C00001A41000001000000000000000000000078
:101C100000000000000000000000000000000000C4
:101C200000000000000000000000000000000000B4
:101C300064240608000000000000000049CA0208F1
:101C4000102700000100000000000000000000005C
:101C50000000000000000000000000000000000084
:101C60000000000000000000000000000000000074
:101C7000F0360608000000000000000019BC020851
:101C80001A410000010000000000000000000000F8
:101C90000000000000000000000000000000000044
:101CA0000000000000000000000000000000000034
:101CB00098430608000000000000000095D00208CC
:101CC000400D0300000000000000000000000000C4
:101CD0000000000000000000000000000000000004
:101CE00000000000000000000000000000000000F4
:101CF000A043060800000000000000008B14040848
:101D0000400D030000000000000000000000000083
:101D100000000000000000000000000000000000C3
:101D200000000000000000000000000000000000B3
:101D3000A84306080000000000000000459B0208C0
:101D400050C300000300000000000000000000007D
:101D50000000000000000000000000000000000083
:101D60000000000000000000000000000000000073
:101D7000B443060800000000000000004D84040881
:101D800040420F00000000000000000000000000C2
:101D90000000000000000000000000000000000043
:101DA0000000000000000000000000000000000033
:101DB000C04306080000000000000000392A0408A3
:101DC00050C3000000000000000000000000000000
:101DD0000000000000000000000000000000000003
:101DE00000000000000000000000000000000000F3
:101DF0000000803FD47D06080000080205030300B0
:101E0000DC7D06080100080205040300E442060820
:101E10000200FE0101100300B825060803001402A9
:101E200000030000E47D060804001F020200080011
:101E3000EC7D060805001F0202010800FFFF0000FC
:041E4000FFFFFFFFA2
:1080000090ED057A90ED004AD0ED066AD0ED014A78
:10801000D0ED047A90ED035AD0ED025AA4EE007A26
:10802000B0EE406AB0EE470AB0EE667AA4EE867A09
:1080300067EEC07AA5EE407AE5EE867A80ED057AA5
:10804000C0ED067A704700BFD0ED057A90ED013A99
:10805000D0ED003AD0ED064A90ED024A90ED077A55
:1080600090ED035A90ED086AD0ED045AC0ED067AFF
:10807000F0EE406A27EE830AC0ED056AA3EEA60A79
:1080800080ED087AA4EE240AA5EE470AA5EEC60AFA
:1080900080ED070A704700BFD0ED007A90ED017ABD
:1080A00030EE670AE7EE007AB0EE670AC0ED007ABC
:1080B000704700BF704700BF0028F0B403DA2D23DB
:1080C0000B7040420131092804464FF0010307DDDF
:1080D00003EB83035B00B0FBF3F2092AF8D883B10A
:1080E0000F48A0FB0326B4FBF3F2092A02F1570C58
:1080F00002F1300709DD03FB1244F30801F801CB5C
:10810000EFD100230B70F0BC704703FB1244F3085F
:1081100001F8017BE5D100230B70F0BC704700BF74
:10812000CDCCCCCC884270B44FF0010442D301FBDB
:1081300004F4B0FBF4F58D42F9D2ECB142BB092D49
:1081400004FB150005F1570605F130020EDDB4FB06
:10815000F1F403F8016B7CB1B0FBF4F5092D04FBDD
:10816000150005F1570605F13002F0DCB4FBF1F41F
:1081700003F8012B002CEFD100221A7070BC70475D
:1081800003F8016BB4FBF1F4002CF5D0B0FBF4F56F
:10819000092D04FB150005F1370605F13002EFDC6F
:1081A000B4FBF1F403F8012B002CEFD100221A707C
:1081B00070BC70470546002AEAD1C0E72DE9F047B8
:1081C00014461D4606464FF47A720023204629467F
:1081D0004FF064FC4D4BDFF848814D4A4D4F03444E
:1081E00088FB03101844D91782FB032CC1EB6010E5
:1081F00088FB002887FB03279C44474AC1EBEC2CF3
:10820000C0EB001E82FB0C29A3EB8E0E1F44434AD9
:1082100086F806E0C1EB27474FEAEC7E08EB000A40
:10822000CEEBA90E82FB07824FEAE0780EEB4E0EF2
:10823000C8EB6A18ACEBCE0CC8EB0818DFF8E4E02A
:1082400086F804C0A0EB880070718EFB0303F8175A
:10825000C0EBE21240F2B55000FB1272C1EBE353E7
:10826000B2F5896F4FEA83073CDA40F2DA239A428B
:1082700042DCB2F5B77FB4BF4FF0000E4FF0010EF5
:108280004FEA4E09DFF8A08009EB0E0308EBC303A9
:108290001FFA8EFCD88A09EB0E0108EBC1011631DA
:1082A0000B2301E031F8020D904218DD013BF9D1BA
:1082B000CE44012338F83E00B37007F5FA67013267
:1082C000121ABC44F270A6F800C0204629464FF4AA
:1082D0007A7200234FF0E2FB3281BDE8F087013370
:1082E000DBB2E9E74FF0030CE64640F29650DFF8C8
:1082F00038804FF00609CEE74FF0020CDFF82880F7
:10830000E64640F229404FF00409C4E780BC92C71A
:10831000C5B3A29107452EC2ABAAAA2A73B06D16A7
:1083200089888888792D0311C096050803685A1C2E
:1083300002601970704700BF2DE9F047089C25784E
:10834000002B804689460CBF4FF0200A4FF0300AC0
:10835000661C25B3002A26DD334601E0024698B1AB
:1083600013F8011B501E0029F8D1971E60B13D463D
:10837000013D51464046C8476B1C002BF8DC257870
:1083800027EAE770013045B1041B29464046C8473B
:10839000301916F8015B002DF7D1BDE8F087002AEF
:1083A00003DC2846F9E70020EEE7571EDFE700BFB1
:1083B00030B43523342221254FF47F44FF2143700C
:1083C000427101230022C57004828174037203701C
:1083D0000371837042818281C28130BC704700BFCB
:1083E00070B4034600F11001FF221A705A70023374
:1083F0008B42FAD10E4B00224FF0FF3103F10C06F5
:1084000000EB42050C469E4200F8124069700CD009
:1084100093F9044093F9051013F8032F00EB42057C
:108420009E4200F812406970F2D170BC704700BFE4
:1084300020970508002310B4312103240122447041
:10844000C17042718370037103705DF8044B704713
:10845000144BFF22F0B54FF0FF34C270027102726C
:1084600042724273827303F10C0EA446172716263C
:108470001525002202EB820281189E4585544E701C
:108480008F7081F803C00C710AD093F90620DD7952
:108490001E7A5F7A93F90AC093F90B400633E9E735
:1084A000F0BD00BF309705082DE9F04F3149324B40
:1084B00083B001F5C07B019013274FF000092F48CE
:1084C0001022012603E0203098420BD00279974217
:1084D000F9D102680C68A24209D02030984206F116
:1084E0000106F3D1203159453AD00F79E7E74479B5
:1084F0004D79A542F1D19446019A214809EB4905ED
:1085000002EB050A57558AF8016000F572751D4E99
:10851000624603E0A8421AD050F82C6FB242F9D15B
:108520000679A642F6D1CF6806464FF0000C964673
:108530008046F268BA4216D00CF1010CBCF1030F70
:1085400006F10C06F5D14046A8427246E4D14FF040
:10855000FF3C203159458AF802C009F10109C4D114
:1085600003B0BDE8F08F086932698242E4D14FFA66
:108570008CFCEEE7C0AC0508DCE505081CDC050852
:10858000DCE505080000014010B42A210124022284
:108590000023047041708270C3705DF8044B704713
:1085A00030B432220023332504240221C270012278
:1085B0008571C4710370C3728373C3734170417258
:1085C00082700272827230BC704700BF00230621A5
:1085D0004FF47A720170C0E901230373704700BF42
:1085E00030B41D6995420AD314460A4621448D428F
:1085F000996938BF2A1B214430BC4FF0E9BC30BC1C
:10860000704700BF0020704700207047012070476E
:108610000120704700207047002070474FF4007021
:10862000024B10609B680B6000207047F0C1002077
:10863000013A30B4D2B28C1C04EB42040025020F84
:10864000092AD3B203F130028ABF37330A700B70A4
:108650004D7002318C424FEA0010F0D130BC7047AF
:108660000B4A0C4B10681B681A22C0180A8001D1F3
:108670000948704710B5094B09491C680822FFF7E3
:10868000D7FF204604220749FFF7D2FF024810BD5A
:10869000E8F7FF1FECF7FF1F88010020EAF7FF1F34
:1086A0008A0100209A01002004230B8000487047B3
:1086B000A401002012230B8000487047A80100206D
:1086C0003022032302704370704700BF08307047A8
:1086D000704700BF816170476D4B2DE9F04F1C68FA
:1086E0006C4BB3F80AE0B3F804809A894FEA0E2A7B
:1086F000B4EB0A044FEA1E6B4FF0000587B065EB40
:108700000B05CDE900450746009C1889019EA0FB9A
:10871000044500FB0655E00940EA45604FEA08447D
:108720008C46E9114FEA184510EB0408D888009CE4
:1087300041EB0509CDE90489A0FB0445B3F80280AB
:1087400000FB0655200A40EA05604FEAC8342912AA
:108750004FEA584510EB040841EB05090099A2FBCC
:10876000010102FB06114FEAD05A4AEA412A1AF5E2
:10877000FA634FEAE15B4BF10004B3F5FA6FCDE920
:10878000023474F10003424E64DA0524AAFB0401AA
:1087900004FB0B1100FB0BF40AFB0144DDE904238D
:1087A000A0FB0A0121444D104FEA3004121B4FEA8E
:1087B000900463EB050344EA8174B8EB0408CDE947
:1087C0000423DDE9023434484FEAA10569EB0509C9
:1087D0004FF0FF31834274EB010326DA40F6AC50D0
:1087E0001AEB00024FF000014BEB010302FB03F117
:1087F000A2FB022303EB4103D400DD00101B45EA7A
:10880000527563EB0501DDE9044524184D41CDE9BE
:1088100004450B24A2FB040104FB031149104FEA99
:108820003000B8EB000869EB0109DDE90032534381
:10883000009ADDE90201A2FB02AB0BEB430B4FEA0E
:10884000DA7242EA4B02801A4FEAEB7361EB0301E2
:10885000CDE9020197B17168A1FB082301FB09333F
:10886000540D5D1544EAC324DDE90423A21A65EB27
:1088700003031D46D30B43EA45433B60BCF1000FA5
:1088800002D0029BCCF8003007B0BDE8F08F00BFEB
:1088900040170020C4A3002024FAFFFF2DE9F04F69
:1088A000DFF8DCC1754CDCF808502288B4F90AA066
:1088B000C2EB25135200C2EBE502B4F902505B4350
:1088C0006A43B4F904501B135D43AD1305EBE22575
:1088D000B5F5FA324FEAE57B85B04BF1FF33CDE9D0
:1088E0000023DDE900325343009AA561A2FB02890F
:1088F000CDE90201B4F908200199009809EB430978
:108900005143D31700FB0311A2FB00230B444FEA92
:10891000EA7B0AFB09F11F0308FB0B13AAFB080102
:1089200019444FEA102A4AEA016A16034FEA212B3A
:1089300047EA12571AEB0602E6884BEB070312F1DF
:10894000000A43F5004BAAFB060106FB0B114A1077
:10895000CB1752EA030100F08E80B4F91060009842
:1089600006FB09F1F71708FB0711A6FB0867394456
:10897000B4F90E808B4601994FEAE87908FB01F1C2
:1089800000FB0911A8FB00898944DCF80C104FEAB0
:108990004947C1F5801C47EAD837B2464FEA4846F6
:1089A000B4F90C801AEB060A66464BEB070BF71777
:1089B0004FEAC806019600260096F907DDE9006730
:1089C0004FEACC7016EB0A0647EB0B0741EA5C0155
:1089D000801B61EB070140F6354C8946A0FB0C017A
:1089E0000CFB09114FF05AF8B4F91620B4F914A091
:1089F0004E13470B47EAC14702FB06FCD31707FBA0
:108A000003CCA2FB07236344564307FB0366A2FB88
:108A100007233344560E46EAC31632184FEA6367FB
:108A200047EB010380460AFB01F14FEAEA7B08FBB2
:108A30000B17AAFB08013944C60C46EA413612EB73
:108A400006084FEAE147B4F9122043EB07094FEA61
:108A5000182141EA096113010B44029A0AB11B0A69
:108A60001360039B23B105EB850580352D121D6036
:108A700005B0BDE8F08F0023EFE700BFD8A30020CA
:108A800040170020704770472DE9F041334B344EBA
:108A90001A8A7489B6F91450B6F90480B6F90E70C2
:108AA000B6F920C05B69121B34895443E213B6F94E
:108AB00012401544E40294FBF5F4B6F90250144454
:108AC000A4F57A6E0EFB0EF20EFB05F50EFB08FE0A
:108AD000B6F90C80F4611213574302FB08F212142A
:108AE00002EB6E32ED1205EBE7270232B6F90050C9
:108AF000B6F806E0921002F5004207EB85070EFB80
:108B000002F207FA0CF74FEAD23E02374CF250322B
:108B1000A3EBA70742FA0CF37B4355BF5B00B3FB03
:108B2000FEF3B3FBFEF35B0078B11A1202FB02F511
:108B300040F6DE326A430B4D12145D4302EB2542D0
:108B400002F6CF6203EB2213036021B10A235C43D8
:108B5000083424110C60BDE8F08100BF40170020EC
:108B6000A0A3002043E3FFFF4FF40063038370479B
:108B70004FF4006303837047012380F8503070473F
:108B80004FF4006303837047F0B4037C45690268C7
:108B90001F2B37D9203B2021546899400C4223D009
:108BA00010249C40D160D4605168D940CE074ED487
:108BB000EFF31183502282F31288EA6B1168C90720
:108BC00009D45468002C52D1D5E909618E4243D1B1
:108BD000012285F86020DBB283F31188037C0268F0
:108BE0001F2B194614D9203B082150689940084290
:108BF00000D0D1600421506801FA03F3184223D158
:108C0000F0BC7047202416689C4026420FD11946BC
:108C1000082310688B40184200D09360042310682A
:108C200003FA01F10842EBD09160F0BC70471021CB
:108C30009940946091601168D940CC07B8D5012162
:108C400001FA03F39360B3E7D360F0BC70470121EE
:108C500001FA03F3D360ABE7AF690F44D7600ED8D6
:108C60002E69711A5160AC62002185F8601011689C
:108C700041F00101DBB2116083F31188AEE7711A94
:108C80005160AE62F0E700BF2DE9F843AE4DAF4C46
:108C90002A7823789A4240F02D81AD4B1A78002A29
:108CA00000F08D80AB4B1E78AB4B002E40F08980DE
:108CB0001968B3F830714E628889012A40EA0700CA
:108CC0008881A3F8306157D0D3F83411B3F86472B7
:108CD0004E628889022A40EA07008881A3F864620C
:108CE0004AD0D3F86812B3F898734E628889032A81
:108CF00040EA07008881A3F898633DD0D3F89C131D
:108D0000B3F8CC744E628889042A40EA070088814F
:108D1000A3F8CC6430D0D3F8D014B3F800764E6208
:108D20008889052A40EA07008881A3F8006623D0D5
:108D3000D3F80416B3F834774E628889062A40EADD
:108D400007008881A3F8346716D0D3F83817B3F832
:108D500068784E628889072A40EA07008881A3F86C
:108D6000686809D0D3F86C28B3F89C0956629189D9
:108D700001439181A3F89C6995F800E023789E4512
:108D80001DD0764F9C469B0063449B00FD18FB580A
:108D9000ABB92B7A9BB96A7A8AB90CF1010303F05B
:108DA0000303D9B28E45217009D003EB83039C00E5
:108DB0003B191A720BF018FE6B6803443B51BDE877
:108DC000F8835E68198971603768186847F0010791
:108DD00040F20D313760A0F848108689012A46F428
:108DE00080768681C8D0D3F83861B3F83C71D3F867
:108DF00034017760376847F001073760A0F8481002
:108E00008689022A46F480768681B5D0D3F86C62D2
:108E1000B3F87072D3F868027760376847F00107DB
:108E20003760A0F848108689032A46F48076868148
:108E3000A2D0D3F8A063B3F8A473D3F89C037760EF
:108E4000376847F001073760A0F848108689042A80
:108E500046F4807686818FD0D3F8D464B3F8D87482
:108E6000D3F8D0047760376847F001073760A0F87F
:108E700048108689052A46F4807686813FF47CAFC7
:108E8000D3F80866B3F80C76D3F804067760376831
:108E900047F001073760A0F848108689062A46F493
:108EA000807686813FF468AFD3F83C67B3F84077AB
:108EB000D3F838077760376847F001073760A0F8C4
:108EC00048108689072A46F4807686813FF454AF9D
:108ED000D3F87028B3F87408D3F86C385060106871
:108EE00040F001001060A3F848109A8942F48072A3
:108EF0009A8141E780460BF077FD94F800C095F821
:108F000000E0F4452ED04FEA8C03144F03EB0C0223
:108F100007EB8202167A46B3B8F1000F3ED0104933
:108F20000022B1F808900132B9F1000F18BF0026F5
:108F3000904501F58471F4D186BB054A1278002A68
:108F40003FF422AFAEE600BF4CDB00204DDB00203B
:108F500024320010203200105CD0002050DB0020B2
:108F60001CC80020154F4FEA8C0363449B00F9187E
:108F7000FA58821A002AFFF622AF4A7A3AB1013A29
:108F8000D2B24A72AAB100F57A70F85000E0FA50F5
:108F90000B4B1A78002A7FF485AEEDE603EB0C024A
:108FA000920000F51C50B9181030B85000220A7217
:108FB000C3E74A681044F850EAE700BF50DB0020DE
:108FC0002432001010B5027C01681F2A4FF02003E4
:108FD0000ED94C68203A93401C4208D00B4A406896
:108FE00000241470026822F001020260CB6010BD00
:108FF0000C6893401C42FAD0044A40680024147064
:10900000026822F0010202608B60F0E74D520020FE
:109010002DE9F041C40023189B00B749CA58526893
:10902000958AADB2EFB2FE070B4461D4BE0737D5C7
:10903000BFF35F8F1D7EEDB2012D00F0BB80AF4E00
:10904000138BBFF35F8F231801EB83031D7E022D6B
:1090500000F0CE80231801EB83031D7E032D05D184
:109060009B7E1BB1737E002B40F01A81938896F98A
:1090700018C043F480639380231801EB83031B7EA5
:10908000013363450AD1B37E00257576002B40F08D
:109090008A80204401EB800000234375BDE8F08105
:1090A000964E17F0040F96F918C04DD117F04007EF
:1090B00000F0B280178A1D6AFFB205F80C705FFAE3
:1090C0008CF56F1C93F818E07BB2DF1CBE4533763D
:1090D0009C4600F00981271801EB87073F7EBB42C1
:1090E000CAD105F1020C4FFA8CFC86F818C0C3E710
:1090F0001588824E25F400652D042D0C15801588E9
:1091000045F4806515809D7E00273776002D3DD083
:10911000757E002D37D0231801EB830301251B7EBC
:109120007576022B03D1138843F400631380231850
:1091300001EB83039B7D43F001031382204401EB89
:109140008000037EBDE8F0819F7E757E4FF0010EAA
:1091500086F81AE0002F5CD0002D78D1231801EB9F
:1091600083035B7E002B00F0A48013880CF1010CBC
:109170004FFA8CFC43F4007386F818C013801388F0
:10918000DF05FCD478E7DB7DFF2BC4D0231801EB8F
:1091900083039D7D05F0FE051582DB7DFF2BCDD081
:1091A000FF233376CAE7938823F440731B041B0C18
:1091B00093806EE79B7E514E002B3FF441AF737E50
:1091C000002B3FF43DAF138823F480631B041B0C7A
:1091D0001380BFF35F8F138B1388B57643F400734E
:1091E0001380938896F918C043F48063938043E713
:1091F0009B7E002B3FF42EAF737E002B3FF42AAFF3
:10920000138896F918C023F480631B041B0C138089
:1092100016E0002DA2D0A8E72D067FF52DAFBCF1FA
:10922000FF3F6DD0DD6915F80C5015820CF1010C73
:109230001D7E4FFA8CF39D429C4633767FF41CAF23
:10924000938823F480631B041B0C938014E71F7E18
:10925000D3F820805FFA8CF5AE44022F4FFA8EFED1
:1092600017882DD927F480673F043F0C1780178A91
:10927000FFB208F80C701788D3F820C047F40073C9
:109280001380138ADBB20CF80E30938805F1020CC0
:109290004FFA8CFC43F4806386F818C093806EE725
:1092A000938896F918C023F480631B041B0C9380E9
:1092B000E2E61388012543F48073138075765EE738
:1092C00047F400771780178AFFB208F80C70178AE6
:1092D000D3F8208005F1030C4FFA8CFCFBB286F822
:1092E00018C008F80E304AE7978827F480673F04D3
:1092F0003F0C9780EFE600BF60AF002040170020D2
:10930000DD7D15829D7E37761DB91B7E002B7FF497
:1093100015AF938823F480631B041B0C93800DE727
:109320000FF0BCBB38B51D4B1B78044600F125057A
:1093300093B104221A49203050F0ACF92846142287
:10934000184950F0A7F9012384F83A30164B1B78DE
:1093500073B984F83B3038BD28461422134950F0C5
:1093600099F9012384F83A300F4B1B78002BF0D089
:109370000F4B186859689A68DD68E5602060616085
:10938000A260DD69186959699A69A2610123E561E2
:109390002061616184F83B3038BD00BF4DA70020DB
:1093A0001CA7002004A700204EA700206812060872
:1093B00024A70020014B18680BF088BEC84300208A
:1093C00010B50021044601200AF056FB207010BDA4
:1093D00038B500240472451EE1B202200AF04CFBAD
:1093E0000134082C05F8010FF6D138BD38B52C2210
:1093F000002150F011F9034640F2DC51642040F2A4
:109400001A4240F2022418745982132019219A82B8
:1094100040F2753240F26C751C8398760E240A2057
:109420001977DA8302210122DD8283F82B0040F6CE
:109430004305197283F82A1083F822409A7383F83F
:10944000252083F829201D8419460248BDE83840AC
:1094500036F0E2BD7412060810B42721262401223A
:109460000023047041708270C3705DF8044B704734
:109470002DE9F84FDDE90A648946174600212022CC
:109480009846054650F0C8F85EB1D6E900327189B9
:10949000EB81C3F30F432B82C2F30F43EA822B838A
:1094A000698248464DF004FE17F0100B10D1431EA0
:1094B00070B119F803202E2A18BF09EB030104D15B
:1094C0004AE011F8016D2E2E3ED013F1FF33F8D291
:1094D00008280246CA46A8BF08224FF0000B4FF0EA
:1094E00020336B602B60C5F807304946284605F1EC
:1094F00008064EF06DFD5A46514630464EF068FD66
:109500006B1EE81D13F8012FA2F1610119299CBF00
:10951000203A1A708342F5D105F10B0116F8013B90
:10952000A3F16102192A9CBF203B06F8013CB1421D
:10953000F4D11823C8F30F42EF722B73A5F81A80E9
:10954000AA82EC61BDE8F88FC01A00F1FF3BBBF1C5
:10955000030FA8BF4FF0030B082B03F1010AA8BFAC
:109560000823CA441A46BAE72DE9F04F002087B015
:109570000C461D46012192460DF038FF002D63D0A8
:1095800005EB0A03DFF8D094DFF8D0B40393554617
:109590001CE0002D00F0C581D9F81430AB4264D036
:1095A000D9F81030AB4200F09780D9E90631AB42D0
:1095B00052D8A94200F26F81691A204645F0BEF9DF
:1095C000039B01359D4204F500743DD0D9F820601D
:1095D000AE42DED8D9F83080AE1B4FEAD60AD8F8B2
:1095E00030300AF1020A9A4506F0070603D3D8F88C
:1095F00038309A4509D94146504645F06DF98046C4
:10960000002800F04D81C9F8300098F80430002B94
:1096100040F0E280D8F82870002F00F0DF81D8F801
:109620003030D8F80C20AAEB030A06EBCA0A4346EE
:10963000204602EB4A224FF40071B847039B0135E4
:109640009D4204F50074C1D1002108460DF0CEFE04
:10965000002007B0BDE8F08FA942ADD94FF40072E9
:10966000002120464FF0D8FFAAE752226120412373
:10967000002622706270A070722284F8E70184F8DC
:10968000E631D9F82800E3704FF0FF33314684F813
:10969000E42184F8E521C4F8E8014FF4F07284F87D
:1096A000EC3184F8ED3184F8EE3184F8EF31201D8F
:1096B0004FF0B2FF55216FF05502C4F8F061C4F8C5
:1096C000F461C4F8F86184F8FC6184F8FD6184F801
:1096D000FE1184F8FF2173E74FF400720021204649
:1096E0004FF09AFFD44BD54F03CBEB2302222370CC
:1096F0004FF0080C9026F8234FF0580EC4F80300E2
:10970000227484F80DC0C4F8071084F801E0A67034
:109710006375D9F81010D9F80830D9F81C60227395
:10972000591A21624FF0FF3100233F20A1763E21DC
:10973000A273E372E3736374A374E3742375A37574
:10974000E3756376E3766377A377E3772076217713
:1097500084F82C2007CFD9F8187084F82830F61B2D
:1097600084F8293084F82A3084F82B3084F82D309E
:1097700084F82E3084F82F3084F8313084F8323079
:1097800084F8333080236662C4F8470004F147064A
:1097900084F8403029209423A94F84F846C084F8E7
:1097A000420084F843300E200D234FF0010C84F862
:1097B000440084F8453084F830C0716003CF3346EC
:1097C0005527AA269A60C4F85200C4F8561084F8A7
:1097D000FE7184F8FF61F3E64FF400720021204629
:1097E0004FF01AFFD8F84030002E61D104F1200765
:1097F000002B77D0D8F8303092491122CDE900669D
:109800002046FFF735FED8F840301A6C04F1400AC4
:10981000002A79D01B6B8C49CDE9006638461122AD
:10982000FFF726FED8F84460002E3FF4C9AE4FF48F
:10983000E078CDE904450CE00024CDE900C4FFF751
:1098400017FEB66CBA46A8F120080EB3B8F11F0F88
:109850001ED93468356B96F804E011222B46214658
:1098600050460AF1200706F11C0CBEF1000FE3D1AF
:1098700072793369019342F021022B46CDF800C082
:10988000FFF7F6FDB66CBA46A8F12008002EDDD130
:10989000DDE9044594E6E91A204645F04FF88FE6E5
:1098A000231F04F5FE7243F804BF9A42FBD187E6FA
:1098B000002BD8F844200CBF01230223C3EB06136E
:1098C000002A3FF47DAE966C013B002E3FF478AE4B
:1098D000013BB66CF9D1002E3FF472AEA2464FF4B4
:1098E0000078A6E7CDE900663346D9F80C100822C7
:1098F0002046FFF7BDFDD8F84460002E3FF460AE6F
:10990000BA464FF4F07894E7CDE90066334638461E
:1099100011224D49FFF7ACFDD8F84460002E86D1E6
:109920004EE64FF40072294620464FF075FE802225
:109930000C2384F8BE2184F8C231D9F81000434BBF
:10994000D9F8086084F8B85183FB0032C117C1EB25
:109950002232B2F5806F84F8B95184F8BA5184F894
:10996000BB5184F8BC5184F8BD51C4F8C601C4F899
:10997000CA6142DBFF2384F8BF3184F8C13184F827
:10998000C031324B711E83FB0132CE17C6EB22323F
:10999000B2F5806F29DA2E4B84F8C52183FB0103D1
:1099A0000B442C48C6EB6313C3EB831680FB037098
:1099B000891B1844DE17921022F03F020131C6EBDA
:1099C000E0100A43034484F8C42184F8C3315522CB
:1099D000AA2384F8FE2184F8FF31F1E539464FF4DB
:1099E000007220464FF018FEEAE5FF2384F8C331E9
:1099F00084F8C53184F8C431E9E7154B84F8C121F6
:109A000083FB00730344134FC1EB631387FB0317FE
:109A1000C3EB831C9110A0EB0C02F818DF1721F0A8
:109A20003F010132C7EBE0100A43034484F8C02130
:109A300084F8BF31A5E700BF881206089412060813
:109A4000A41206088012060884120608975545419C
:109A50008320088281808080F0C10020DEADBEEFCF
:109A600008B501202DF0E8F8174A936803F00C03BD
:109A7000042B1ED0082B18D151685368490203F0FB
:109A80003F0319D452681148B0FBF3F0C2F38813B6
:109A900000FB03F00C4B0E4A5B68C3F30143013338
:109AA0005B00B0FBF3F0106008BD094B074A1A6079
:109AB00008BD074B186008BDB0FBF3F05368C3F353
:109AC000881300FB03F0E5E7003802400024F400AF
:109AD000C0B000202DE9F0410D4601211C4608468A
:109AE00016460DF083FCC4B105EB44280E4F01E08F
:109AF0002BF06AFB3A680023146929461A4630465F
:109B0000A0470028F4D12BF05FFB0028FBD005F51F
:109B10000075454506F10106ECD1002101200DF04C
:109B200065FC0020BDE8F081DCC100202DE9F0419A
:109B30000D4601211C46084616460DF057FCACB1F7
:109B40000E4F05EB44283A680023946829461A46CC
:109B50003046A0470028F6D02BF036FB0028FBD07B
:109B600005F50075454506F10106ECD100210120FF
:109B70000DF03CFC0020BDE8F08100BFDCC10020FE
:109B800008B52BF021FB80F00100404240B208BD37
:109B900038B514460D462BF009FB4FF400730268EC
:109BA0002A600020236038BD002108B508460DF06A
:109BB0001DFC44F07BFE2BF007FB0028FBD00121AD
:109BC00000200DF013FC002008BD00BF10B5044CB0
:109BD00004480A4621462BF0DBFD204610BD00BF9D
:109BE0005C170020B012060810B5044C04480A4661
:109BF00021462BF0CDFD204610BD00BF5C17002094
:109C0000C012060810B5044C04480A4621462BF041
:109C1000BFFD204610BD00BF5C170020CC12060817
:109C20000A4608B5054920B105482BF0B1FD0348A7
:109C300008BD04482BF0ACFD004808BD5C170020AF
:109C4000F8120608E01206082DE9F04F87B0A94A7D
:109C500002904068038823F040031B041B0C038020
:109C6000038823F038031B0490424FEA134300F0AB
:109C70003F8102F5806290420CBF302238221343AC
:109C80000380029B02889B6842F04002028013B16D
:109C90001A689B885383838940F2E93302E0002BE2
:109CA00000F090810289013B12F0020F9BB2F6D0C6
:109CB0006B23838140F2E93302E0002B00F08281C4
:109CC0000289013B12F0010F9BB2F6D08389838990
:109CD00040F2E93302E0002B00F071810289013B80
:109CE00012F0020F9BB2F6D08023838140F2E93359
:109CF00002E0002B00F063810289013B12F0010FAA
:109D00009BB2F6D08389029B9B6813B11A689B882B
:109D100013830623784CDFF8EC81DFF8ECA1774D54
:109D2000774E04939623DFF8E4C101934FF0100EB1
:109D3000DAF80430C3F30803002B40F0B280EFF3ED
:109D40001183002B40F0AD802068AA6823689842F8
:109D5000FAD133689A42F7D8D8F800704FF47A7184
:109D600001FB07F39B1AB3FBF7F301FB00304FF441
:109D70007A774FF00109DAF80430C3F30803002BB7
:109D800070D1EFF31183002B6CD12368A96822688E
:109D90009342FAD132689142F7D8D8F8002007FBF5
:109DA00002FBABEB0101B1FBF2F107FB03131B1A42
:109DB000B3F57A7FDFD3019B013B0193B8D1029BBE
:109DC0009B6813B11A689B885383029B586840F2C2
:109DD000E933828902E0002B00F085800289013B93
:109DE00012F0020F9BB2F6D0F523838140F2E933E3
:109DF00001E0002B77D00289013B12F0010F9BB2EA
:109E0000F7D08389838940F2E93301E0002B67D0E2
:109E10000289013B12F0020F9BB2F7D0FF2383812E
:109E200040F2E93301E0002B5AD00289013B12F0E5
:109E3000010F9BB2F7D08389DBB20393029B9A6830
:109E400012B1136891881983039B682B60D0049B1F
:109E5000013B13F0FF0304937FF464AF184607B08F
:109E6000BDE8F08FEFF311818EF31288D5F808B0BA
:109E70002B68DB0344BFCCF80090D5F808B023680A
:109E8000DCF80020C9B281F31188D8F8001013441F
:109E900007FB01F2A2EB0B02B2FBF1F207FB03237B
:109EA00085E7EFF311838EF31288AF682A68D20337
:109EB00003D50122CCF80020AF682068DCF80090C0
:109EC000DBB283F31188D8F800104FF47A7248445B
:109ED00002FB01F3DB1BB3FBF1F302FB003046E7AF
:109EE0000EF020FCAAE70EF01DFC029B586889E7E3
:109EF0003022C4E60038004030BB002010E000E013
:109F000038BB002034BB002000ED00E02CBB00205B
:109F100012B1136892885A83029B586840F2E93361
:109F2000828901E0002B45D00289013B12F0020F2B
:109F30009BB2F7D08C23838140F2E93301E0002B00
:109F400038D00289013B12F0010F9BB2F7D0838910
:109F5000838940F2E9330289013B12F0020F9BB280
:109F600015D1002BF7D10EF0DDFB029B9B6813B1DE
:109F70001A689B881383059B142B04D3182B17D9BD
:109F8000543B062B14D9002007B0BDE8F08FFF2307
:109F9000838140F2E93301E0002BE4D00289013BE8
:109FA00012F0010F9BB2F7D08389DBB20593DCE797
:109FB000032054E70EF0B6FB029B5868C8E70EF08A
:109FC000B1FBA0E60EF0AEFB029B58687FE600BF37
:109FD00038B5054640683B4A038823F040031B041C
:109FE0001B0C0380038823F038031B0490424FEAC4
:109FF000134305D002F58062904201D043F008037C
:10A0000003800388AA6843F04003038012B11368F9
:10A0100092885A83838940F2E93301E0002B43D0D0
:10A020000289013B12F0020F9BB2F7D0F523838126
:10A0300040F2E93301E0002B36D00289013B12F0F7
:10A04000010F9BB2F7D08389838940F2E93300E0A6
:10A050000BB30289013B12F0020F9BB2F8D0FF2331
:10A06000838140F2E93300E0ABB10289013B12F099
:10A07000010F9BB2F8D08489E4B2AB6813B11A68BF
:10A080009B881383712C19D008D9AC2C14D0AF2C19
:10A090000ED1092038BD0EF045FBEEE7122C0FD093
:10A0A000702C07D1052038BD0EF03CFB6868CBE76B
:10A0B000732C03D0002038BD072038BD062038BDE2
:10A0C000082038BD00380040F0B5876983B00646E7
:10A0D00017B13B68BA885A837069DFF8A8E08389B2
:10A0E000C3244FF47A734FF0060C6D464FF6FF71A0
:10A0F0000EF1010E03E0013B9BB28B4220D002899E
:10A100009207F8D5A3B283814FF47A7302E0A3B229
:10A110008B4215D00289D20703F1FF34F7D582892B
:10A1200092B20DB12A700135BCF1000F0BD00CF1C9
:10A13000FF3CFF24BEF1000FE1D09EF80040D7E7BE
:10A140000EF0F0FAB76917B13B68BA881A839DF828
:10A1500005009DF801509DF802109DF803409DF800
:10A1600004209DF8063041EA052143EA002342EA33
:10A1700004220120A6F85010A6F85220A6F8543068
:10A1800003B0F0BD4497050810B500F10C0400229F
:10A19000212120460EF0D8FBFC22202120460EF083
:10A1A000D3FB4022242120460EF0CEFB0C2223219B
:10A1B00020460EF0C9FB0022222120460EF0C4FBEF
:10A1C00064200AF0E3FC012010BD10B500F10C047E
:10A1D00001220B2120460EF0B7FB20B11D220921E0
:10A1E00020460EF0B1FB00F0010010BD10B500F1EB
:10A1F0000C047022002120460EF0A6FB2022012133
:10A2000020460EF0A1FB0022022120460EF09CFB0E
:10A2100064200AF0BBFC012010BD012248210EF091
:10A2200093BB012258210EF08FBB3122F4210EF096
:10A230008BBB054B93F820209201343202F0FC02D4
:10A24000F4210EF081BB00BFA0A300202E22F42138
:10A250000EF07ABB13B506230C466A4628210C3053
:10A260000EF0CCFAF0B19DF801309DF8002042EAE2
:10A27000032204219DF8033012B292FBF1F22280F6
:10A280009DF8022042EA032212B29DF8043092FBAC
:10A29000F1F262809DF8052043EA02231BB293FB92
:10A2A000F1F3A38002B010BD7FB5002500F10C06CC
:10A2B0000C460D804D808D8001230DF10702062193
:10A2C00030460EF09BFA10B9002004B070BD9DF826
:10A2D00007305B07F8D5062302AA294630460EF060
:10A2E0008DFA0028F0D09DF809209DF8083043EA47
:10A2F000022323809DF80B209DF80A3043EA0223B5
:10A3000063809DF80D209DF80C3043EA0223A38062
:10A31000DBE713B506230C466A4603210C300EF02A
:10A320006DFAA0B19DF800209DF8013043EA0223A8
:10A3300023809DF802209DF8033043EA0223A38086
:10A340009DF804209DF8053043EA0223638002B0A3
:10A3500010BD07B5032301AA00210EF04FFA9DF8A6
:10A3600005309DF804001B0243EA00439DF80600F7
:10A37000184303B05DF804FB08B5FFF7EAFF014B93
:10A38000586008BD4017002008B5FFF7E2FF014BF9
:10A39000186008BD4017002007B506236A46F7215C
:10A3A0000EF02CFA9DF801309DF800100B4A1B01AD
:10A3B00043EA01339DF8021043EA1113D3609DF87C
:10A3C00004309DF803101B0143EA01339DF805108A
:10A3D00043EA1113936003B05DF804FB40170020BB
:10A3E00007B5032301AAF6210EF008FA9DF80530FF
:10A3F0009DF804201B0243EA02439DF80620134304
:10A40000054AB2F92020C2F10802D340034A536141
:10A4100003B05DF804FB00BFA0A30020401700209C
:10A4200007B5022301AAF6210EF0E8F99DF80420F1
:10A430009DF8053043EA0223024A138203B05DF817
:10A4400004FB00BF4017002070B582B0044606230D
:10A4500010306A4643210EF0D1F9C0B19DF80400D6
:10A460009DF800609DF801109DF802509DF80320B2
:10A470009DF8053041EA062143EA002342EA05221D
:10A48000A4F85010A4F85220A4F85430012002B0CF
:10A4900070BD00BF70B582B0044606230C306A461A
:10A4A0003B210EF0ABF9A8B19DF804009DF80060C7
:10A4B0009DF801109DF802509DF803209DF805308D
:10A4C00041EA062143EA002342EA05226183A2838E
:10A4D000E383012002B070BD2DE9F04F87B0034641
:10A4E000039090F86100002840F02886039B93F8C1
:10A4F0005830072B00F019861823CDE90433039B4D
:10A50000BD4CBE4EDFF80083BD4F1033184680228D
:10A510006B2102930EF018FA6423DFF8F0E2B948D9
:10A5200001934FF01009DEF80430C3F30803002B49
:10A5300040F0AA84EFF31183002B40F0A584256836
:10A54000826823689D42FAD13B689A42F7D8D6F8D0
:10A5500000C04FF47A7101FB0CF39B1AB3FBFCF3C0
:10A5600001FB05354FF47A7C4FF0010ADEF8043028
:10A57000C3F30803002B40F06884EFF31183002B32
:10A5800040F063842368816822689342FAD13A6874
:10A590009142F7D832680CFB02FBABEB0101B1FB37
:10A5A000F2F10CFB03135B1BB3F57A7FDED3019B47
:10A5B000013B0193B7D1072268210298DFF8488256
:10A5C0008F4F0EF0C1F96423DFF840E28D4801930C
:10A5D0004FF01009DEF80430C3F30803002B40F0FD
:10A5E0009784EFF31183002B40F0928425688268F2
:10A5F00023689D42FAD13B689A42F7D8D6F800C04A
:10A600004FF47A7101FB0CF39B1AB3FBFCF301FBD3
:10A6100005354FF47A7C4FF0010ADEF80430C3F3BD
:10A620000803002B40F0F383EFF31183002B40F07D
:10A63000EE832368816822689342FAD13A68914296
:10A64000F7D832680CFB02FBABEB0101B1FBF2F176
:10A650000CFB03135B1BB3F57A7FDED3019B013B3D
:10A660000193B7D11A466B210298DFF89C81644FA1
:10A670000EF06AF96423DFF894E1624801934FF029
:10A680001009DEF80430C3F30803002B40F01E84E9
:10A69000EFF31183002B40F019842568826823684A
:10A6A0009D42FAD13B689A42F7D8D6F800C04FF4E1
:10A6B0007A7101FB0CF39B1AB3FBFCF301FB05352C
:10A6C0004FF47A7C4FF0010ADEF80430C3F308033C
:10A6D000002B40F07E83EFF31183002B40F0798351
:10A6E0002368816822689342FAD13A689142F7D888
:10A6F00032680CFB02FBABEB0101B1FBF2F10CFB8E
:10A7000003135B1BB3F57A7FDED3019B013B0193FF
:10A71000B7D101226B210298DFF8EC80384F0EF0A0
:10A7200013F90F23DFF8E4E0364801934FF01009E6
:10A73000DEF80430C3F30803002B40F0D284EFF3BB
:10A740001183002B40F0CD842568826823689D42E8
:10A75000FAD13B689A42F7D8D6F800C04FF47A7124
:10A7600001FB0CF39B1AB3FBFCF301FB05354FF423
:10A770007A7C4FF0010ADEF80430C3F30803002BA3
:10A7800040F00983EFF31183002B40F0048323682A
:10A79000816822689342FAD13A689142F7D83268C8
:10A7A0000CFB02FBABEB0101B1FBF2F10CFB031361
:10A7B0005B1BB3F57A7FDED3019B013B0193B7D1DD
:10A7C000059A0298DFF840800D4F1B210EF0BCF86F
:10A7D0000F23DFF838E00B4801934FF01009DEF843
:10A7E0000430C3F30803002B40F05984EFF31183C6
:10A7F000002B40F054840BE030BB002034BB002021
:10A8000038BB002010E000E02CBB002000ED00E091
:10A810002568826823689D42FAD13B689A42F7D83E
:10A82000D6F800C04FF47A7101FB0CF39B1AB3FB0E
:10A83000FCF301FB05354FF47A7C4FF0010ADEF89A
:10A840000430C3F30803002B40F08782EFF3118339
:10A85000002B40F082822368816822689342FAD1FB
:10A860003A689142F7D832680CFB02FBABEB01016E
:10A87000B1FBF2F10CFB03135B1BB3F57A7FDED364
:10A88000019B013B0193AAD1049A0298DFF820832F
:10A89000C54F1C210EF058F80F23DFF818E3C3480A
:10A8A00001934FF01009DEF80430C3F30803002BC6
:10A8B00040F0D483EFF31183002B40F0CF83256861
:10A8C000826823689D42FAD13B689A42F7D8D6F84D
:10A8D00000C04FF47A7101FB0CF39B1AB3FBFCF33D
:10A8E00001FB05354FF47A7C4FF0010ADEF80430A5
:10A8F000C3F30803002B40F01282EFF31183002B07
:10A9000040F00D822368816822689342FAD13A6848
:10A910009142F7D832680CFB02FBABEB0101B1FBB3
:10A92000F2F10CFB03135B1BB3F57A7FDED3019BC3
:10A93000013B0193B7D1039A92F85B30032B00F2ED
:10A94000F28392F85E20012A0BD0022A40F0EB83BA
:10A95000039B93F8633003F0FB03022B0CBF002230
:10A9600007221A210298DFF848828F4F0DF0ECFF82
:10A970000F23DFF840E28D4801934FF01009DEF815
:10A980000430C3F30803002B40F02683EFF3118358
:10A99000002B40F021832568826823689D42FAD10C
:10A9A0003B689A42F7D8D6F800C04FF47A7101FBA1
:10A9B0000CF39B1AB3FBFCF301FB05354FF47A7CD7
:10A9C0004FF0010ADEF80430C3F30803002B40F017
:10A9D0008881EFF31183002B40F083812368816825
:10A9E00022689342FAD13A689142F7D832680CFB58
:10A9F00002FBABEB0101B1FBF2F10CFB03135B1BA0
:10AA0000B3F57A7FDED3019B013B0193B7D1039B62
:10AA1000029893F86020DFF89881634F19210DF0B8
:10AA200093FF6423DFF88CE1604801934FF0100935
:10AA3000DEF80430C3F30803002B40F0EE82EFF39E
:10AA40001183002B40F0E9822568826823689D42CB
:10AA5000FAD13B689A42F7D8D6F800C04FF47A7121
:10AA600001FB0CF39B1AB3FBFCF301FB05354FF420
:10AA70007A7C4FF0010ADEF80430C3F30803002BA0
:10AA800040F01181EFF31183002B40F00C8123681B
:10AA9000816822689342FAD13A689142F7D83268C5
:10AAA0000CFB02FBABEB0101B1FBF2F10CFB03135E
:10AAB0005B1BB3F57A7FDED3019B013B0193B7D1DA
:10AAC000102237210298DFF8E880374F0DF03CFF65
:10AAD0000F23DFF8E0E0354801934FF01009DEF86E
:10AAE0000430C3F30803002B40F05582EFF31183C9
:10AAF000002B40F050822568826823689D42FAD17D
:10AB00003B689A42F7D8D6F800C04FF47A7101FB3F
:10AB10000CF39B1AB3FBFCF301FB05354FF47A7C75
:10AB20004FF0010ADEF80430C3F30803002B40F0B5
:10AB30009C80EFF31183002B40F09780236881689D
:10AB400022689342FAD13A689142F7D832680CFBF6
:10AB500002FBABEB0101B1FBF2F10CFB03135B1B3E
:10AB6000B3F57A7FDED3019B013B0193B7D1029805
:10AB7000DFF83C800C4F012238210DF0E5FE0F2359
:10AB8000DFF830E0094801934FF01009DEF8043097
:10AB9000C3F30803002B40F0DD81EFF31183002B9A
:10ABA00040F0D88108E000BF38BB002010E000E092
:10ABB0002CBB002000ED00E02568826823689D42E0
:10ABC000FAD13B689A42F7D8D6F800C04FF47A71B0
:10ABD00001FB0CF39B1AB3FBFCF301FB05354FF4AF
:10ABE0007A7C4FF0010ADEF80430C3F30803F3B9AE
:10ABF000EFF31183DBB92368816822689342FAD1AD
:10AC00003A689142F7D832680CFB02FBABEB0101CA
:10AC1000B1FBF2F10CFB03135B1BB3F57A7FE2D3BC
:10AC2000019B013B0193B1D107B0BDE8F08FEFF379
:10AC3000118189F31288D0F808B00368DB0344BFA0
:10AC4000C8F800A0D0F808B02368D8F80020C9B22E
:10AC500081F31188316813440CFB01F2A2EB0B0263
:10AC6000B2FBF1F20CFB0323D6E7EFF3118189F37A
:10AC70001288D0F808B00368DB0344BFC8F800A00E
:10AC8000D0F808B02368D8F80020C9B281F3118841
:10AC9000316813440CFB01F2A2EB0B02B2FBF1F2A0
:10ACA0000CFB03235BE7EFF3118189F31288D0F8E3
:10ACB00008B00368DB0344BFC8F800A0D0F808B0B0
:10ACC0002368D8F80020C9B281F311883168134491
:10ACD0000CFB01F2A2EB0B02B2FBF1F20CFB032323
:10ACE000E6E6EFF3118189F31288D0F808B0036823
:10ACF000DB0344BFC8F800A0D0F808B02368D8F838
:10AD00000020C9B281F31188316813440CFB01F2B1
:10AD1000A2EB0B02B2FBF1F20CFB03236FE6EFF3A5
:10AD2000118189F31288D0F808B00368DB0344BFAF
:10AD3000C8F800A0D0F808B02368D8F80020C9B23D
:10AD400081F31188316813440CFB01F2A2EB0B0272
:10AD5000B2FBF1F20CFB0323E5E5EFF3118189F37C
:10AD60001288D0F808B00368DB0344BFC8F800A01D
:10AD7000D0F808B02368D8F80020C9B281F3118850
:10AD8000316813440CFB01F2A2EB0B02B2FBF1F2AF
:10AD90000CFB032370E5EFF3118189F31288D0F8DF
:10ADA00008B00368DB0344BFC8F800A0D0F808B0BF
:10ADB0002368D8F80020C9B281F3118831681344A0
:10ADC0000CFB01F2A2EB0B02B2FBF1F20CFB032332
:10ADD000EEE4EFF3118189F31288D0F808B003682C
:10ADE000DB0344BFC8F800A0D0F808B02368D8F847
:10ADF0000020C9B281F31188316813440CFB01F2C1
:10AE0000A2EB0B02B2FBF1F20CFB032379E4EFF3AC
:10AE1000118189F31288D0F808B00368DB0344BFBE
:10AE2000C8F800A0D0F808B02368D8F80020C9B24C
:10AE300081F31188316813440CFB01F2A2EB0B0281
:10AE4000B2FBF1F20CFB032304E4EFF3118189F36D
:10AE50001288D0F808B00368DB0344BFC8F800A02C
:10AE6000D0F808B02368D8F80020C9B281F311885F
:10AE7000316813440CFB01F2A2EB0B02B2FBF1F2BE
:10AE80000CFB0323FFF78FBBEFF3118389F31288C9
:10AE9000D0F808C00268D20304D50122C8F8002007
:10AEA000D0F808C02568D8F800A0DBB283F3118879
:10AEB00031684FF47A72554402FB01F3A3EB0C03A3
:10AEC000B3FBF1F302FB0535FFF74CBBEFF3118346
:10AED00089F31288D0F808C00268D20304D5012291
:10AEE000C8F80020D0F808C02568D8F800A0DBB268
:10AEF00083F3118831684FF47A72554402FB01F3F1
:10AF0000A3EB0C03B3FBF1F302FB0535FFF7D8BB52
:10AF1000EFF3118389F31288D0F808C00268D203D6
:10AF200004D50122C8F80020D0F808C02568D8F858
:10AF300000A0DBB283F3118831684FF47A72554474
:10AF400002FB01F3A3EB0C03B3FBF1F302FB0535AA
:10AF5000FFF75FBBEFF3118389F31288D0F808C0C5
:10AF60000268D20304D50122C8F80020D0F808C036
:10AF70002568D8F800A0DBB283F3118831684FF45C
:10AF80007A72554402FB01F3A3EB0C03B3FBF1F31C
:10AF900002FB053523E6EFF3118389F31288D0F81D
:10AFA00008C00268D20304D50122C8F80020D0F8F6
:10AFB00008C02568D8F800A0DBB283F31188316897
:10AFC0004FF47A72554402FB01F3A3EB0C03B3FB7D
:10AFD000F1F302FB0535A1E5EFF3118389F3128844
:10AFE000D0F808C00268D20304D50122C8F80020B6
:10AFF000D0F808C02568D8F800A0DBB283F3118828
:10B0000031684FF47A72554402FB01F3A3EB0C0351
:10B01000B3FBF1F302FB0535D0E4EFF3118389F3C1
:10B020001288D0F808C00268D20304D50122C8F8FB
:10B030000020D0F808C02568D8F800A0DBB283F360
:10B04000118831684FF47A72554402FB01F3A3EB87
:10B050000C03B3FBF1F302FB053508E5EFF31183B5
:10B0600089F31288D0F808C00268D20304D50122FF
:10B07000C8F80020D0F808C02568D8F800A0DBB2D6
:10B0800083F3118831684FF47A72554402FB01F35F
:10B09000A3EB0C03B3FBF1F302FB053522E4EFF362
:10B0A000118389F31288D0F808C00268D20304D54E
:10B0B0000122C8F80020D0F808C02568D8F800A000
:10B0C000DBB283F3118831684FF47A72554402FB86
:10B0D00001F3A3EB0C03B3FBF1F302FB0535FFF720
:10B0E000AABBEFF3118389F31288D0F808C0026875
:10B0F000D20304D50122C8F80020D0F808C0256882
:10B10000D8F800A0DBB283F3118831684FF47A726B
:10B11000554402FB01F3A3EB0C03B3FBF1F302FB79
:10B120000535FFF724BB019A1BE4039B93F85D30C0
:10B130001BBB1023CDE90433FFF7E1B91D460BF02B
:10B1400029FF05F10C010446E8B120230022837198
:10B15000104BC271EB6041F0E5FCA388B3FA83F3B6
:10B16000C3F11F03012212FA03F33FF4BFA90A49F6
:10B170000A6813430B60FFF7B9B910211823CDE912
:10B180000413FFF7BCB9034BEB6041F0CBFCFFF7B6
:10B19000ADB900BF798B0008003C01404269944979
:10B1A000138823F040032DE9F04F1B041B0C138080
:10B1B000138883B023F038031B048A4201904FEABE
:10B1C000134300F00A8101F580618A420CBF2821F7
:10B1D00030210B431380138843F040031380012078
:10B1E00009F076FC019C2046FFF776F9A36913B1BC
:10B1F0001A689B885383019B586940F2E93382891E
:10B2000002E0002B00F0EE800289013B12F0020FF9
:10B210009BB2F6D06A23838140F2E93302E0002B2F
:10B2200000F0E0800289013B12F0010F9BB2F6D0E2
:10B230008389838940F2E93302E0002B00F0CF805C
:10B240000289013B12F0020F9BB2F6D010238381DA
:10B2500040F2E93302E0002B00F0C1800289013B9B
:10B2600012F0010F9BB2F6D08389019B9B6913B149
:10B270001A689B88138364235E48DFF884E1DFF853
:10B2800084C15D4CDFF880815C4E00934FF0100963
:10B29000DCF80430C3F30803002B7FD1EFF31183F4
:10B2A000002B7BD10568A26803689D42FAD1336800
:10B2B0009A42F7D8DEF800704FF47A7101FB07F379
:10B2C0009B1AB3FBF7F301FB05354FF47A774FF088
:10B2D000010ADCF80430C3F30803002B3FD1EFF37D
:10B2E0001183002B3BD10368A16802689342FAD115
:10B2F00032689142F7D8DEF8002007FB02FBABEB87
:10B300000101B1FBF2F107FB03135B1BB3F57A7F7D
:10B31000DFD3009B013B0093BAD1019B34495A69AA
:10B32000138823F040031B041B0C1380138823F0A5
:10B3300038031B048A424FEA134305D001F58061AC
:10B340008A4201D043F0080313801388012043F0A0
:10B350004003138003B0BDE8F04F09F0B9BBEFF331
:10B36000118189F31288D4F808B02368DB0344BF45
:10B37000C8F800A0D4F808B00368D8F80020C9B213
:10B3800081F31188DEF80010134407FB01F2A2EBF1
:10B390000B02B2FBF1F207FB0323B6E7EFF31183D5
:10B3A00089F31288A7682268D20303D50122C8F85E
:10B3B0000020A7680568D8F800A0DBB283F31188E5
:10B3C000DEF800104FF47A72554402FB01F3DB1BE8
:10B3D000B3FBF1F302FB053577E72821F9E60DF021
:10B3E000A1F942E70DF09EF9019B586921E700BFE2
:10B3F0000038004030BB002010E000E038BB0020E7
:10B4000034BB002000ED00E02CBB00202DE9F84FFC
:10B41000037C02681F2B86BF203B516811682022E5
:10B4200002FA03F30B4214BF012300230BB9BDE85A
:10B43000F88F4569DFF878A16F01044609F0D4FA66
:10B440007B190AEBC30306461A7C002A34D1534900
:10B450005A680978D2F80090C9B9D96F58890A6832
:10B4600022F001020A60B9F80C3023EA0003A9F8BF
:10B470000C304B4B1B78002B31D1237C21681F2BC8
:10B4800013D8202202FA03F38B60BDE8F88F5269CB
:10B49000136823F001031360B9F80C3023F48073B0
:10B4A0001B041B0CA9F80C30E3E7203B202202FA16
:10B4B00003F3CB60BDE8F88FDE6F3A485F89012265
:10B4C0005A7431685A680368156821F001013160C7
:10B4D000AA89013322EA0702AA810360CDE72F443B
:10B4E000FF000AEB07053037D5F87C8040462BF08B
:10B4F00053FC01232B74D5F880B009F075FA0AEBE0
:10B500000701CBF82C0148462BF04CFDD5E914700F
:10B51000EB6BD5E916123B4303430B4313432A6EEF
:10B520002F6FD8F80000204913436A6E13436A6FE7
:10B530003B43014013430B430022AA64C8F8003088
:10B54000D8F81420AB6EE96C22F0070CEA6ED5E94E
:10B550001070134343EA0C03C8F81430C8F8041001
:10B56000C8F80870C8F80C00D8F80020EB6F95F800
:10B570007800696842F01002C8F8002058601A6824
:10B58000096842F001021A608B896A8913438B8132
:10B5900009F02AFA054B801B18606EE72032001074
:10B5A0001C32001084A900203F801CF0E033001002
:10B5B0001CC80020037903F01803082B0AD002D816
:10B5C0002BB100207047102B16D0182BF9D1B0F8F2
:10B5D0000B007047114BB0F80B0093F90030591C69
:10B5E00006BF0F4B1B78DBB2C3EB0312C3EB820326
:10B5F00000EB430080B270470A4BB0F80B0093F9A0
:10B6000000305A1C06BF064B5B78DBB203EB4302EB
:10B6100003EB820300EB430080B270473517002034
:10B6200078C5002034170020F0B5067906F06003D5
:10B63000402B09D144794FF0FF350023012006F05B
:10B640000706A3420BD1F0BD602B08BF45794FF030
:10B6500001040CBF04FA05F54FF0FF35EDE7042EA9
:10B660000CD8DFE806F0030D18242E0030B1C85CBA
:10B67000D75C784028420CBF012000200133E0E76E
:10B680000028FBD0C856D756A0EB070CDCF1000011
:10B6900040EB0C00F2E70028F0D031F8130032F84C
:10B6A0001370784028420CBF01200020E6E70028F4
:10B6B000E4D031F9130032F91370C71B7842784196
:10B6C000DCE70028DAD051F8230052F823707840E4
:10B6D00028420CBF01200020D0E7024B0146186829
:10B6E0000DF0DCB9BC42002038B5064D441E14F8FC
:10B6F000011F286819B9BDE838400DF083B90DF075
:10B70000CDF9F4E7BC4200200048EDE7AD50060853
:10B7100008B5FFF7E9FFBDE80840F5E710B50446B6
:10B720000348FFF7E1FF2046BDE81040F0E700BF07
:10B730003112060838B5074C074DAC4203D3074B0E
:10B7400000221A7038BD6288D4E901014CF040FC37
:10B750001434F2E790010008440700083CF500208B
:10B7600038B5074C074DAC4203D3074B01221A7082
:10B7700038BD6288D4E901104CF02AFC1434F2E799
:10B7800090010008440700083CF50020024A1368B5
:10B7900023EA00001060704754DA002030B40268D9
:10B7A0001146531C036011F8024B0160D31C517801
:10B7B00003609378151D05601B0443EA0123D078CC
:10B7C000234343EA006030BC704700BF0368591C44
:10B7D0001A46016012F8021B0260587841EA002004
:10B7E000704700BF03685A1C02601878704700BF9A
:10B7F00070B5044608460E464BF05AFC31460546E5
:10B80000024620684CF0E4FB20682844206070BDAC
:10B8100038B50446006815464CF0DAFB22682A4425
:10B82000226038BD036810B40A0E5C1C04601A70F4
:10B8300003680A0C5C1C04601A7003680A0A5C1C2A
:10B8400004601A7003685A1C026019705DF8044B9A
:10B85000704700BF036810B40A0A5C1C04601A70C9
:10B8600003685A1C026019705DF8044B704700BFF2
:10B8700003685A1C026010B4197003680A0A5C1C41
:10B8800004601A7003680A0C5C1C04601A70036878
:10B89000090E5A1C026019705DF8044B704700BF16
:10B8A00003685A1C026019700368090A5A1C026076
:10B8B0001970704710EE103AC3F3160242F07E5230
:10B8C00007EE102ADFED167ADFED164A9FED165AC5
:10B8D000DFED165A9FED166ADFED163ADFED166AB8
:10B8E0009FED164AE7EE274ADB1507EE903AA4EEE5
:10B8F000875AF8EEE77AE5EE075A67EEA37AA5EEE7
:10B90000876AB5EEC00AE6EE077AF1EE10FAD4BF08
:10B91000B0EE440AB0EE660A37EE800A704700BF08
:10B92000DACDFE3CB9D593BE5CB8903FAA841DC069
:10B9300022E061401872313F07F1B3C2000080FF7E
:10B94000DFED1D3ADFED1D7A9FED1D7A9FED1D4A5B
:10B95000DFED1D4A9FED1D5ADFED1D5A9FED1D6A5B
:10B96000DFED1D6AE0EE237AF4EEC77AF1EE10FA0D
:10B9700088BFF0EE477AF4EEC47AF1EE10FAB8BF61
:10B98000F0EE447AFDEEE77A17EE903AC3F3160232
:10B9900042F07E5207EE102AA7EE245A03F0FF432E
:10B9A00000EE103AE5EE075AA5EE876AE6EE076A62
:10B9B00026EE800A704700BF3BAA384B00007E4E3F
:10B9C0000000FF4E00000000ED185E3C81900FBBB0
:10B9D000AF9D2A3EB2D19F3EE886023F07EE901A05
:10B9E000F8EE677A9FED807A27EE800A20EE070A4C
:10B9F000FDEEC07A17EE903A2033402B7BD8DFED76
:10BA00007B7AB4EEE70AF1EE10FA40F3E180B0EE93
:10BA1000407A9FED776ADFED776A01E0B0EE677AF2
:10BA2000B4EEE67AF1EE10FA77EE467AF6DC9FEDA8
:10BA3000727AF4EEC77AF1EE10FA40F1CC809FED05
:10BA40006C6ADFED6E6A01E0F0EE477AF4EEE67ABA
:10BA5000F1EE10FA37EE867AF6D4DFED697AB4EEBD
:10BA6000E77AF1EE10FA40F3A280DFED607A37EE6C
:10BA7000C77A27EE076ADFED635ADFED637ADFED01
:10BA8000636A9FED635AE6EE257A67EE065AE6EEA4
:10BA9000276AF7EE007AA5EEA67AF0EE675AE7EE8F
:10BAA000055AE7EE457A87EEA55ADFED557A30EE76
:10BAB000277AFDEEC76A16EE903A2033402B1FD945
:10BAC0009FED547AF6EE006AB7EE006AF7EE004A90
:10BAD000C4EEA57A80ED045A67EEA66A27EE866A60
:10BAE00027EE877AC0ED006AC0ED026A80ED016A38
:10BAF00080ED037A7047B7EE005AF0EE455AD4E76E
:10BB0000B4EEE70AF1EE10FA6BDD9FED396ADFED76
:10BB1000396A01E0B0EE677AB4EEE67AF1EE10FA37
:10BB200077EE467AF6DC9FED347AF4EEC77AF1EEE2
:10BB300010FA53D59FED2E6ADFED306A01E0F0EE8A
:10BB4000477AF4EEE67AF1EE10FA37EE867AF6D41A
:10BB5000DFED2B7AB4EEE77AF1EE10FA33DCDFEDAD
:10BB60002E7AB4EEE77AF1EE10FA44BFDFED227AD6
:10BB700037EEC77A27EE076ADFED224ADFED226A49
:10BB8000DFED227AE6EE246A67EE064AE6EE267AD2
:10BB9000B7EE006AA4EEA77AF6EE006A36EE476AC0
:10BBA000F8EE007A27EE277A66EE266A8EE7DFED5A
:10BBB0001A7AB4EEE77AF1EE10FA44BFDFED0E7AAE
:10BBC00037EEC77A55E7DFED097A37EEC77AD1E766
:10BBD000F0EE407A2BE7B0EE677A3EE7B0EE677A98
:10BBE000B6E7F0EE477A9EE727D4D236DB0F49401E
:10BBF000DB0FC940E4CB1641DB0F49C0E4CB16C1D3
:10BC0000DB0FC93F92E741B99730083C15A82ABE1F
:10BC1000F304353F00000000DB0FC9BFDFED2E7AD3
:10BC2000B4EEE70AF1EE10FA4ADDDFED2C6A9FED83
:10BC30002C7A01E0B0EE670AB4EEC70AF1EE10FA12
:10BC400070EE667AF6DC9FED277AF4EEC77AF1EEB5
:10BC500010FA3ED5DFED216A9FED237A01E0F0EE88
:10BC6000407AF4EEC77AF1EE10FA37EEA60AF6D46F
:10BC7000DFED1E7AB4EEE70AF1EE10FA14DDDFED27
:10BC8000167A37EEC00A60EE006A9FED196A9FEDE2
